{
  "contractName": "Coursera",
  "abi": [
    {
      "inputs": [],
      "stateMutability": "nonpayable",
      "type": "constructor"
    },
    {
      "inputs": [],
      "name": "CourseHasOwner",
      "type": "error"
    },
    {
      "inputs": [],
      "name": "OnlyOwner",
      "type": "error"
    },
    {
      "inputs": [
        {
          "internalType": "bytes16",
          "name": "courseId",
          "type": "bytes16"
        },
        {
          "internalType": "bytes32",
          "name": "proof",
          "type": "bytes32"
        }
      ],
      "name": "purchaseCourse",
      "outputs": [],
      "stateMutability": "payable",
      "type": "function",
      "payable": true
    },
    {
      "inputs": [
        {
          "internalType": "address",
          "name": "newOwner",
          "type": "address"
        }
      ],
      "name": "transferOwnerShip",
      "outputs": [],
      "stateMutability": "nonpayable",
      "type": "function"
    },
    {
      "inputs": [],
      "name": "getCourseCount",
      "outputs": [
        {
          "internalType": "uint256",
          "name": "",
          "type": "uint256"
        }
      ],
      "stateMutability": "view",
      "type": "function",
      "constant": true
    },
    {
      "inputs": [
        {
          "internalType": "uint256",
          "name": "index",
          "type": "uint256"
        }
      ],
      "name": "getCourseHash",
      "outputs": [
        {
          "internalType": "bytes32",
          "name": "",
          "type": "bytes32"
        }
      ],
      "stateMutability": "view",
      "type": "function",
      "constant": true
    },
    {
      "inputs": [],
      "name": "getContractOwner",
      "outputs": [
        {
          "internalType": "address",
          "name": "",
          "type": "address"
        }
      ],
      "stateMutability": "view",
      "type": "function",
      "constant": true
    },
    {
      "inputs": [
        {
          "internalType": "bytes32",
          "name": "courseHash",
          "type": "bytes32"
        }
      ],
      "name": "getCourseByHash",
      "outputs": [
        {
          "components": [
            {
              "internalType": "uint256",
              "name": "id",
              "type": "uint256"
            },
            {
              "internalType": "uint256",
              "name": "price",
              "type": "uint256"
            },
            {
              "internalType": "bytes32",
              "name": "proof",
              "type": "bytes32"
            },
            {
              "internalType": "address",
              "name": "owner",
              "type": "address"
            },
            {
              "internalType": "enum Coursera.State",
              "name": "state",
              "type": "uint8"
            }
          ],
          "internalType": "struct Coursera.Course",
          "name": "",
          "type": "tuple"
        }
      ],
      "stateMutability": "view",
      "type": "function",
      "constant": true
    }
  ],
  "bytecode": "0x608060405234801561001057600080fd5b506100203361002560201b60201c565b610069565b80600360006101000a81548173ffffffffffffffffffffffffffffffffffffffff021916908373ffffffffffffffffffffffffffffffffffffffff16021790555050565b610a94806100786000396000f3fe6080604052600436106100555760003560e01c8063442890d51461005a57806362e4e6ac146100855780638158045a146100c25780638863dd1a146100ff57806396cfda0614610128578063d76821cb14610153575b600080fd5b34801561006657600080fd5b5061006f61016f565b60405161007c91906105ff565b60405180910390f35b34801561009157600080fd5b506100ac60048036038101906100a79190610655565b610199565b6040516100b99190610798565b60405180910390f35b3480156100ce57600080fd5b506100e960048036038101906100e491906107df565b610274565b6040516100f6919061081b565b60405180910390f35b34801561010b57600080fd5b5061012660048036038101906101219190610862565b610291565b005b34801561013457600080fd5b5061013d610309565b60405161014a919061089e565b60405180910390f35b61016d60048036038101906101689190610911565b610313565b005b6000600360009054906101000a900473ffffffffffffffffffffffffffffffffffffffff16905090565b6101a1610564565b6000808381526020019081526020016000206040518060a00160405290816000820154815260200160018201548152602001600282015481526020016003820160009054906101000a900473ffffffffffffffffffffffffffffffffffffffff1673ffffffffffffffffffffffffffffffffffffffff1673ffffffffffffffffffffffffffffffffffffffff1681526020016003820160149054906101000a900460ff166002811115610257576102566106b9565b5b6002811115610269576102686106b9565b5b815250509050919050565b600060016000838152602001908152602001600020549050919050565b61029961016f565b73ffffffffffffffffffffffffffffffffffffffff163373ffffffffffffffffffffffffffffffffffffffff16146102fd576040517f5fc483c500000000000000000000000000000000000000000000000000000000815260040160405180910390fd5b610306816104b3565b50565b6000600254905090565b600082336040516020016103289291906109ba565b604051602081830303815290604052805190602001209050610349816104f7565b15610380576040517fb0fc2d9700000000000000000000000000000000000000000000000000000000815260040160405180910390fd5b60006002600081548092919061039590610a15565b9190505590508160016000838152602001908152602001600020819055506040518060a001604052808281526020013481526020018481526020013373ffffffffffffffffffffffffffffffffffffffff16815260200160006002811115610400576103ff6106b9565b5b81525060008084815260200190815260200160002060008201518160000155602082015181600101556040820151816002015560608201518160030160006101000a81548173ffffffffffffffffffffffffffffffffffffffff021916908373ffffffffffffffffffffffffffffffffffffffff16021790555060808201518160030160146101000a81548160ff021916908360028111156104a5576104a46106b9565b5b021790555090505050505050565b80600360006101000a81548173ffffffffffffffffffffffffffffffffffffffff021916908373ffffffffffffffffffffffffffffffffffffffff16021790555050565b60003373ffffffffffffffffffffffffffffffffffffffff1660008084815260200190815260200160002060030160009054906101000a900473ffffffffffffffffffffffffffffffffffffffff1673ffffffffffffffffffffffffffffffffffffffff16149050919050565b6040518060a00160405280600081526020016000815260200160008019168152602001600073ffffffffffffffffffffffffffffffffffffffff168152602001600060028111156105b8576105b76106b9565b5b81525090565b600073ffffffffffffffffffffffffffffffffffffffff82169050919050565b60006105e9826105be565b9050919050565b6105f9816105de565b82525050565b600060208201905061061460008301846105f0565b92915050565b600080fd5b6000819050919050565b6106328161061f565b811461063d57600080fd5b50565b60008135905061064f81610629565b92915050565b60006020828403121561066b5761066a61061a565b5b600061067984828501610640565b91505092915050565b6000819050919050565b61069581610682565b82525050565b6106a48161061f565b82525050565b6106b3816105de565b82525050565b7f4e487b7100000000000000000000000000000000000000000000000000000000600052602160045260246000fd5b600381106106f9576106f86106b9565b5b50565b600081905061070a826106e8565b919050565b600061071a826106fc565b9050919050565b61072a8161070f565b82525050565b60a082016000820151610746600085018261068c565b506020820151610759602085018261068c565b50604082015161076c604085018261069b565b50606082015161077f60608501826106aa565b5060808201516107926080850182610721565b50505050565b600060a0820190506107ad6000830184610730565b92915050565b6107bc81610682565b81146107c757600080fd5b50565b6000813590506107d9816107b3565b92915050565b6000602082840312156107f5576107f461061a565b5b6000610803848285016107ca565b91505092915050565b6108158161061f565b82525050565b6000602082019050610830600083018461080c565b92915050565b61083f816105de565b811461084a57600080fd5b50565b60008135905061085c81610836565b92915050565b6000602082840312156108785761087761061a565b5b60006108868482850161084d565b91505092915050565b61089881610682565b82525050565b60006020820190506108b3600083018461088f565b92915050565b60007fffffffffffffffffffffffffffffffff0000000000000000000000000000000082169050919050565b6108ee816108b9565b81146108f957600080fd5b50565b60008135905061090b816108e5565b92915050565b600080604083850312156109285761092761061a565b5b6000610936858286016108fc565b925050602061094785828601610640565b9150509250929050565b6000819050919050565b61096c610967826108b9565b610951565b82525050565b60008160601b9050919050565b600061098a82610972565b9050919050565b600061099c8261097f565b9050919050565b6109b46109af826105de565b610991565b82525050565b60006109c6828561095b565b6010820191506109d682846109a3565b6014820191508190509392505050565b7f4e487b7100000000000000000000000000000000000000000000000000000000600052601160045260246000fd5b6000610a2082610682565b91507fffffffffffffffffffffffffffffffffffffffffffffffffffffffffffffffff821415610a5357610a526109e6565b5b60018201905091905056fea2646970667358221220d71df598b814674439ff2f1d8db791b8e3bf0aaa6a3c9a4a8312dc78cc39a47d64736f6c634300080b0033",
  "immutableReferences": {},
  "source": "// SPDX-License-Identifier: MIT\r\npragma solidity >=0.4.22 <0.9.0;\r\n\r\ncontract Coursera {\r\n\r\n    enum State {Purchased, Activated, Deactivated }\r\n\r\n    struct Course {\r\n        uint id;\r\n        uint price;\r\n        bytes32 proof;\r\n        address owner;\r\n        State state;\r\n    }\r\n\r\n    mapping(bytes32 => Course) private ownedCourses;\r\n\r\n    mapping(uint => bytes32) private ownedCourseHash;\r\n\r\n    uint private totalOwnedCourses;\r\n\r\n    address payable private owner;\r\n\r\n    constructor(){\r\n        setContractOwner(msg.sender);\r\n    }\r\n\r\n\r\n    error CourseHasOwner();\r\n    error OnlyOwner();\r\n\r\n    modifier onlyOwner(){\r\n        if(msg.sender != getContractOwner()){\r\n            revert OnlyOwner();\r\n        }\r\n        _;\r\n    }\r\n\r\n    //courseID  0x00000000000000000000000000003130\r\n    //proof  0x0000000000000000000000000000313000000000000000000000000000003130\r\n\r\n    function purchaseCourse( bytes16 courseId, bytes32 proof ) external payable{\r\n        bytes32 courseHash = keccak256(abi.encodePacked(courseId, msg.sender));\r\n\r\n        if(hasCourseOwnership(courseHash)){\r\n            revert CourseHasOwner();\r\n        }\r\n\r\n        uint id = totalOwnedCourses++;\r\n        ownedCourseHash[id] = courseHash;\r\n        ownedCourses[courseHash] = Course({\r\n            id: id,\r\n            price: msg.value,\r\n            proof: proof,\r\n            owner: msg.sender,\r\n            state: State.Purchased\r\n        });\r\n    }\r\n\r\n    function transferOwnerShip(address newOwner) external onlyOwner{\r\n        setContractOwner(newOwner);\r\n    }\r\n\r\n    function getCourseCount() external view returns(uint){\r\n        return totalOwnedCourses;\r\n    }\r\n\r\n    function getCourseHash(uint index) external view returns(bytes32){\r\n        return ownedCourseHash[index];\r\n    }\r\n\r\n    function getContractOwner() public view returns(address){\r\n        return owner;\r\n    }\r\n\r\n    function getCourseByHash(bytes32 courseHash) external view returns(Course memory){\r\n        return ownedCourses[courseHash];\r\n    }\r\n\r\n    function setContractOwner(address newOwner) private{\r\n        owner = payable(newOwner);\r\n    }\r\n\r\n    function hasCourseOwnership(bytes32 courseHash) private view returns(bool){\r\n        return ownedCourses[courseHash].owner == msg.sender;\r\n    }\r\n\r\n} \r\n",
  "sourcePath": "D:\\web3\\NextDapp\\coursera_dapp\\contracts\\Coursera.sol",
  "compiler": {
    "name": "solc",
    "version": "0.8.11+commit.d7f03943.Emscripten.clang"
  },
  "schemaVersion": "3.4.8",
  "updatedAt": "2022-07-21T23:10:56.603Z",
  "networkType": "ethereum",
  "devdoc": {
    "kind": "dev",
    "methods": {},
    "version": 1
  },
  "userdoc": {
    "kind": "user",
    "methods": {},
    "version": 1
  }
}